{
  "_format": "hh-sol-artifact-1",
  "contractName": "Occuland",
  "sourceName": "contracts/Occuland.sol",
  "abi": [
    {
      "inputs": [
        {
          "internalType": "address",
          "name": "_minterAccount",
          "type": "address"
        }
      ],
      "stateMutability": "nonpayable",
      "type": "constructor"
    },
    {
      "anonymous": false,
      "inputs": [
        {
          "indexed": true,
          "internalType": "address",
          "name": "owner",
          "type": "address"
        },
        {
          "indexed": true,
          "internalType": "address",
          "name": "approved",
          "type": "address"
        },
        {
          "indexed": true,
          "internalType": "uint256",
          "name": "tokenId",
          "type": "uint256"
        }
      ],
      "name": "Approval",
      "type": "event"
    },
    {
      "anonymous": false,
      "inputs": [
        {
          "indexed": true,
          "internalType": "address",
          "name": "owner",
          "type": "address"
        },
        {
          "indexed": true,
          "internalType": "address",
          "name": "operator",
          "type": "address"
        },
        {
          "indexed": false,
          "internalType": "bool",
          "name": "approved",
          "type": "bool"
        }
      ],
      "name": "ApprovalForAll",
      "type": "event"
    },
    {
      "anonymous": false,
      "inputs": [
        {
          "indexed": false,
          "internalType": "address",
          "name": "from",
          "type": "address"
        },
        {
          "indexed": false,
          "internalType": "uint256",
          "name": "assetId",
          "type": "uint256"
        }
      ],
      "name": "BridgeBack",
      "type": "event"
    },
    {
      "anonymous": false,
      "inputs": [
        {
          "indexed": true,
          "internalType": "bytes32",
          "name": "role",
          "type": "bytes32"
        },
        {
          "indexed": true,
          "internalType": "bytes32",
          "name": "previousAdminRole",
          "type": "bytes32"
        },
        {
          "indexed": true,
          "internalType": "bytes32",
          "name": "newAdminRole",
          "type": "bytes32"
        }
      ],
      "name": "RoleAdminChanged",
      "type": "event"
    },
    {
      "anonymous": false,
      "inputs": [
        {
          "indexed": true,
          "internalType": "bytes32",
          "name": "role",
          "type": "bytes32"
        },
        {
          "indexed": true,
          "internalType": "address",
          "name": "account",
          "type": "address"
        },
        {
          "indexed": true,
          "internalType": "address",
          "name": "sender",
          "type": "address"
        }
      ],
      "name": "RoleGranted",
      "type": "event"
    },
    {
      "anonymous": false,
      "inputs": [
        {
          "indexed": true,
          "internalType": "bytes32",
          "name": "role",
          "type": "bytes32"
        },
        {
          "indexed": true,
          "internalType": "address",
          "name": "account",
          "type": "address"
        },
        {
          "indexed": true,
          "internalType": "address",
          "name": "sender",
          "type": "address"
        }
      ],
      "name": "RoleRevoked",
      "type": "event"
    },
    {
      "anonymous": false,
      "inputs": [
        {
          "indexed": true,
          "internalType": "address",
          "name": "from",
          "type": "address"
        },
        {
          "indexed": true,
          "internalType": "address",
          "name": "to",
          "type": "address"
        },
        {
          "indexed": true,
          "internalType": "uint256",
          "name": "tokenId",
          "type": "uint256"
        }
      ],
      "name": "Transfer",
      "type": "event"
    },
    {
      "inputs": [],
      "name": "DEFAULT_ADMIN_ROLE",
      "outputs": [
        {
          "internalType": "bytes32",
          "name": "",
          "type": "bytes32"
        }
      ],
      "stateMutability": "view",
      "type": "function"
    },
    {
      "inputs": [],
      "name": "MINTER_ROLE",
      "outputs": [
        {
          "internalType": "bytes32",
          "name": "",
          "type": "bytes32"
        }
      ],
      "stateMutability": "view",
      "type": "function"
    },
    {
      "inputs": [
        {
          "internalType": "address",
          "name": "to",
          "type": "address"
        },
        {
          "internalType": "uint256",
          "name": "tokenId",
          "type": "uint256"
        }
      ],
      "name": "approve",
      "outputs": [],
      "stateMutability": "nonpayable",
      "type": "function"
    },
    {
      "inputs": [
        {
          "internalType": "address",
          "name": "owner",
          "type": "address"
        }
      ],
      "name": "balanceOf",
      "outputs": [
        {
          "internalType": "uint256",
          "name": "",
          "type": "uint256"
        }
      ],
      "stateMutability": "view",
      "type": "function"
    },
    {
      "inputs": [
        {
          "internalType": "uint256",
          "name": "tokenId",
          "type": "uint256"
        }
      ],
      "name": "bridgeBack",
      "outputs": [],
      "stateMutability": "nonpayable",
      "type": "function"
    },
    {
      "inputs": [
        {
          "internalType": "uint256",
          "name": "tokenId",
          "type": "uint256"
        }
      ],
      "name": "burn",
      "outputs": [],
      "stateMutability": "nonpayable",
      "type": "function"
    },
    {
      "inputs": [
        {
          "internalType": "uint256",
          "name": "tokenId",
          "type": "uint256"
        }
      ],
      "name": "getApproved",
      "outputs": [
        {
          "internalType": "address",
          "name": "",
          "type": "address"
        }
      ],
      "stateMutability": "view",
      "type": "function"
    },
    {
      "inputs": [
        {
          "internalType": "bytes32",
          "name": "role",
          "type": "bytes32"
        }
      ],
      "name": "getRoleAdmin",
      "outputs": [
        {
          "internalType": "bytes32",
          "name": "",
          "type": "bytes32"
        }
      ],
      "stateMutability": "view",
      "type": "function"
    },
    {
      "inputs": [
        {
          "internalType": "bytes32",
          "name": "role",
          "type": "bytes32"
        },
        {
          "internalType": "address",
          "name": "account",
          "type": "address"
        }
      ],
      "name": "grantRole",
      "outputs": [],
      "stateMutability": "nonpayable",
      "type": "function"
    },
    {
      "inputs": [
        {
          "internalType": "bytes32",
          "name": "role",
          "type": "bytes32"
        },
        {
          "internalType": "address",
          "name": "account",
          "type": "address"
        }
      ],
      "name": "hasRole",
      "outputs": [
        {
          "internalType": "bool",
          "name": "",
          "type": "bool"
        }
      ],
      "stateMutability": "view",
      "type": "function"
    },
    {
      "inputs": [
        {
          "internalType": "address",
          "name": "owner",
          "type": "address"
        },
        {
          "internalType": "address",
          "name": "operator",
          "type": "address"
        }
      ],
      "name": "isApprovedForAll",
      "outputs": [
        {
          "internalType": "bool",
          "name": "",
          "type": "bool"
        }
      ],
      "stateMutability": "view",
      "type": "function"
    },
    {
      "inputs": [
        {
          "internalType": "address",
          "name": "to",
          "type": "address"
        },
        {
          "internalType": "string",
          "name": "uri",
          "type": "string"
        }
      ],
      "name": "mint",
      "outputs": [],
      "stateMutability": "nonpayable",
      "type": "function"
    },
    {
      "inputs": [],
      "name": "name",
      "outputs": [
        {
          "internalType": "string",
          "name": "",
          "type": "string"
        }
      ],
      "stateMutability": "view",
      "type": "function"
    },
    {
      "inputs": [
        {
          "internalType": "uint256",
          "name": "tokenId",
          "type": "uint256"
        }
      ],
      "name": "ownerOf",
      "outputs": [
        {
          "internalType": "address",
          "name": "",
          "type": "address"
        }
      ],
      "stateMutability": "view",
      "type": "function"
    },
    {
      "inputs": [
        {
          "internalType": "bytes32",
          "name": "role",
          "type": "bytes32"
        },
        {
          "internalType": "address",
          "name": "account",
          "type": "address"
        }
      ],
      "name": "renounceRole",
      "outputs": [],
      "stateMutability": "nonpayable",
      "type": "function"
    },
    {
      "inputs": [
        {
          "internalType": "bytes32",
          "name": "role",
          "type": "bytes32"
        },
        {
          "internalType": "address",
          "name": "account",
          "type": "address"
        }
      ],
      "name": "revokeRole",
      "outputs": [],
      "stateMutability": "nonpayable",
      "type": "function"
    },
    {
      "inputs": [
        {
          "internalType": "address",
          "name": "from",
          "type": "address"
        },
        {
          "internalType": "address",
          "name": "to",
          "type": "address"
        },
        {
          "internalType": "uint256",
          "name": "tokenId",
          "type": "uint256"
        }
      ],
      "name": "safeTransferFrom",
      "outputs": [],
      "stateMutability": "nonpayable",
      "type": "function"
    },
    {
      "inputs": [
        {
          "internalType": "address",
          "name": "from",
          "type": "address"
        },
        {
          "internalType": "address",
          "name": "to",
          "type": "address"
        },
        {
          "internalType": "uint256",
          "name": "tokenId",
          "type": "uint256"
        },
        {
          "internalType": "bytes",
          "name": "_data",
          "type": "bytes"
        }
      ],
      "name": "safeTransferFrom",
      "outputs": [],
      "stateMutability": "nonpayable",
      "type": "function"
    },
    {
      "inputs": [
        {
          "internalType": "address",
          "name": "operator",
          "type": "address"
        },
        {
          "internalType": "bool",
          "name": "approved",
          "type": "bool"
        }
      ],
      "name": "setApprovalForAll",
      "outputs": [],
      "stateMutability": "nonpayable",
      "type": "function"
    },
    {
      "inputs": [
        {
          "internalType": "bytes4",
          "name": "interfaceId",
          "type": "bytes4"
        }
      ],
      "name": "supportsInterface",
      "outputs": [
        {
          "internalType": "bool",
          "name": "",
          "type": "bool"
        }
      ],
      "stateMutability": "view",
      "type": "function"
    },
    {
      "inputs": [],
      "name": "symbol",
      "outputs": [
        {
          "internalType": "string",
          "name": "",
          "type": "string"
        }
      ],
      "stateMutability": "view",
      "type": "function"
    },
    {
      "inputs": [
        {
          "internalType": "uint256",
          "name": "index",
          "type": "uint256"
        }
      ],
      "name": "tokenByIndex",
      "outputs": [
        {
          "internalType": "uint256",
          "name": "",
          "type": "uint256"
        }
      ],
      "stateMutability": "view",
      "type": "function"
    },
    {
      "inputs": [
        {
          "internalType": "address",
          "name": "owner",
          "type": "address"
        },
        {
          "internalType": "uint256",
          "name": "index",
          "type": "uint256"
        }
      ],
      "name": "tokenOfOwnerByIndex",
      "outputs": [
        {
          "internalType": "uint256",
          "name": "",
          "type": "uint256"
        }
      ],
      "stateMutability": "view",
      "type": "function"
    },
    {
      "inputs": [
        {
          "internalType": "uint256",
          "name": "tokenId",
          "type": "uint256"
        }
      ],
      "name": "tokenURI",
      "outputs": [
        {
          "internalType": "string",
          "name": "",
          "type": "string"
        }
      ],
      "stateMutability": "view",
      "type": "function"
    },
    {
      "inputs": [],
      "name": "totalSupply",
      "outputs": [
        {
          "internalType": "uint256",
          "name": "",
          "type": "uint256"
        }
      ],
      "stateMutability": "view",
      "type": "function"
    },
    {
      "inputs": [
        {
          "internalType": "address",
          "name": "from",
          "type": "address"
        },
        {
          "internalType": "address",
          "name": "to",
          "type": "address"
        },
        {
          "internalType": "uint256",
          "name": "tokenId",
          "type": "uint256"
        }
      ],
      "name": "transferFrom",
      "outputs": [],
      "stateMutability": "nonpayable",
      "type": "function"
    }
  ],
  "bytecode": "0x60806040523480156200001157600080fd5b50604051620027013803806200270183398101604081905262000034916200024c565b604080518082018252601381527f4f6363756c616e643a204e46542041737365740000000000000000000000000060208083019182528351808501909452600684526513d0d0d3139160d21b9084015281519192916200009791600091620001a6565b508051620000ad906001906020840190620001a6565b50620000bf91506000905033620000f2565b620000eb7f9f2df0fed2c77648de5860a4cc508cd0818c85b8b8a1ab4ceeef8d981c8956a682620000f2565b50620002b9565b620000fe828262000102565b5050565b6000828152600b602090815260408083206001600160a01b038516845290915290205460ff16620000fe576000828152600b602090815260408083206001600160a01b03851684529091529020805460ff19166001179055620001623390565b6001600160a01b0316816001600160a01b0316837f2f8788117e7eff1d82e926ec794901d17c78024a50270940304540a733656f0d60405160405180910390a45050565b828054620001b4906200027c565b90600052602060002090601f016020900481019282620001d8576000855562000223565b82601f10620001f357805160ff191683800117855562000223565b8280016001018555821562000223579182015b828111156200022357825182559160200191906001019062000206565b506200023192915062000235565b5090565b5b8082111562000231576000815560010162000236565b6000602082840312156200025e578081fd5b81516001600160a01b038116811462000275578182fd5b9392505050565b600181811c908216806200029157607f821691505b60208210811415620002b357634e487b7160e01b600052602260045260246000fd5b50919050565b61243880620002c96000396000f3fe608060405234801561001057600080fd5b506004361061018e5760003560e01c80634f6ccce7116100de578063a22cb46511610097578063d0def52111610071578063d0def5211461035f578063d539139314610372578063d547741f14610399578063e985e9c5146103ac57600080fd5b8063a22cb46514610326578063b88d4fde14610339578063c87b56dd1461034c57600080fd5b80634f6ccce7146102ca5780636352211e146102dd57806370a08231146102f057806391d148541461030357806395d89b4114610316578063a217fddf1461031e57600080fd5b8063248a9ca31161014b57806336568abe1161012557806336568abe1461027e57806342842e0e1461029157806342966c68146102a457806343f00db4146102b757600080fd5b8063248a9ca3146102355780632f2ff15d146102585780632f745c591461026b57600080fd5b806301ffc9a71461019357806306fdde03146101bb578063081812fc146101d0578063095ea7b3146101fb57806318160ddd1461021057806323b872dd14610222575b600080fd5b6101a66101a13660046120a0565b6103e8565b60405190151581526020015b60405180910390f35b6101c36103f9565b6040516101b291906121e5565b6101e36101de366004612066565b61048b565b6040516001600160a01b0390911681526020016101b2565b61020e61020936600461203d565b610518565b005b6008545b6040519081526020016101b2565b61020e610230366004611ef0565b61062e565b610214610243366004612066565b6000908152600b602052604090206001015490565b61020e61026636600461207e565b610660565b61021461027936600461203d565b610686565b61020e61028c36600461207e565b61071c565b61020e61029f366004611ef0565b61079a565b61020e6102b2366004612066565b6107b5565b61020e6102c5366004612066565b61082f565b6102146102d8366004612066565b6108ca565b6101e36102eb366004612066565b61096b565b6102146102fe366004611ea4565b6109e2565b6101a661031136600461207e565b610a69565b6101c3610a94565b610214600081565b61020e610334366004611fa4565b610aa3565b61020e610347366004611f2b565b610b68565b6101c361035a366004612066565b610ba0565b61020e61036d366004611fde565b610bab565b6102147f9f2df0fed2c77648de5860a4cc508cd0818c85b8b8a1ab4ceeef8d981c8956a681565b61020e6103a736600461207e565b610c05565b6101a66103ba366004611ebe565b6001600160a01b03918216600090815260056020908152604080832093909416825291909152205460ff1690565b60006103f382610c2b565b92915050565b60606000805461040890612340565b80601f016020809104026020016040519081016040528092919081815260200182805461043490612340565b80156104815780601f1061045657610100808354040283529160200191610481565b820191906000526020600020905b81548152906001019060200180831161046457829003601f168201915b5050505050905090565b600061049682610c50565b6104fc5760405162461bcd60e51b815260206004820152602c60248201527f4552433732313a20617070726f76656420717565727920666f72206e6f6e657860448201526b34b9ba32b73a103a37b5b2b760a11b60648201526084015b60405180910390fd5b506000908152600460205260409020546001600160a01b031690565b60006105238261096b565b9050806001600160a01b0316836001600160a01b031614156105915760405162461bcd60e51b815260206004820152602160248201527f4552433732313a20617070726f76616c20746f2063757272656e74206f776e656044820152603960f91b60648201526084016104f3565b336001600160a01b03821614806105ad57506105ad81336103ba565b61061f5760405162461bcd60e51b815260206004820152603860248201527f4552433732313a20617070726f76652063616c6c6572206973206e6f74206f7760448201527f6e6572206e6f7220617070726f76656420666f7220616c6c000000000000000060648201526084016104f3565b6106298383610c6d565b505050565b610639335b82610cdb565b6106555760405162461bcd60e51b81526004016104f39061224a565b610629838383610dc5565b6000828152600b602052604090206001015461067c8133610f70565b6106298383610fd4565b6000610691836109e2565b82106106f35760405162461bcd60e51b815260206004820152602b60248201527f455243373231456e756d657261626c653a206f776e657220696e646578206f7560448201526a74206f6620626f756e647360a81b60648201526084016104f3565b506001600160a01b03919091166000908152600660209081526040808320938352929052205490565b6001600160a01b038116331461078c5760405162461bcd60e51b815260206004820152602f60248201527f416363657373436f6e74726f6c3a2063616e206f6e6c792072656e6f756e636560448201526e103937b632b9903337b91039b2b63360891b60648201526084016104f3565b610796828261105a565b5050565b61062983838360405180602001604052806000815250610b68565b6107be33610633565b6108235760405162461bcd60e51b815260206004820152603060248201527f4552433732314275726e61626c653a2063616c6c6572206973206e6f74206f7760448201526f1b995c881b9bdc88185c1c1c9bdd995960821b60648201526084016104f3565b61082c816110c1565b50565b336108398261096b565b6001600160a01b0316146108855760405162461bcd60e51b81526020600482015260136024820152724e6f6e2d6f776e6572206e6f2061636365737360681b60448201526064016104f3565b61088e816110c1565b60408051338152602081018390527f81d439494384cf6c5586d125797a32d4157c30a773506556d13150ab7df72fa2910160405180910390a150565b60006108d560085490565b82106109385760405162461bcd60e51b815260206004820152602c60248201527f455243373231456e756d657261626c653a20676c6f62616c20696e646578206f60448201526b7574206f6620626f756e647360a01b60648201526084016104f3565b6008828154811061095957634e487b7160e01b600052603260045260246000fd5b90600052602060002001549050919050565b6000818152600260205260408120546001600160a01b0316806103f35760405162461bcd60e51b815260206004820152602960248201527f4552433732313a206f776e657220717565727920666f72206e6f6e657869737460448201526832b73a103a37b5b2b760b91b60648201526084016104f3565b60006001600160a01b038216610a4d5760405162461bcd60e51b815260206004820152602a60248201527f4552433732313a2062616c616e636520717565727920666f7220746865207a65604482015269726f206164647265737360b01b60648201526084016104f3565b506001600160a01b031660009081526003602052604090205490565b6000918252600b602090815260408084206001600160a01b0393909316845291905290205460ff1690565b60606001805461040890612340565b6001600160a01b038216331415610afc5760405162461bcd60e51b815260206004820152601960248201527f4552433732313a20617070726f766520746f2063616c6c65720000000000000060448201526064016104f3565b3360008181526005602090815260408083206001600160a01b03871680855290835292819020805460ff191686151590811790915590519081529192917f17307eab39ab6107e8899845ad3d59bd9653f200f220920489ca2b5937696c31910160405180910390a35050565b610b723383610cdb565b610b8e5760405162461bcd60e51b81526004016104f39061224a565b610b9a848484846110ca565b50505050565b60606103f3826110fd565b7f9f2df0fed2c77648de5860a4cc508cd0818c85b8b8a1ab4ceeef8d981c8956a6610bd68133610f70565b610be4600c80546001019055565b6000610bef600c5490565b9050610bfb848261126c565b610b9a8184611286565b6000828152600b6020526040902060010154610c218133610f70565b610629838361105a565b60006001600160e01b03198216637965db0b60e01b14806103f357506103f382611311565b6000908152600260205260409020546001600160a01b0316151590565b600081815260046020526040902080546001600160a01b0319166001600160a01b0384169081179091558190610ca28261096b565b6001600160a01b03167f8c5be1e5ebec7d5bd14f71427d1e84f3dd0314c0f7b2291e5b200ac8c7c3b92560405160405180910390a45050565b6000610ce682610c50565b610d475760405162461bcd60e51b815260206004820152602c60248201527f4552433732313a206f70657261746f7220717565727920666f72206e6f6e657860448201526b34b9ba32b73a103a37b5b2b760a11b60648201526084016104f3565b6000610d528361096b565b9050806001600160a01b0316846001600160a01b03161480610d8d5750836001600160a01b0316610d828461048b565b6001600160a01b0316145b80610dbd57506001600160a01b0380821660009081526005602090815260408083209388168352929052205460ff165b949350505050565b826001600160a01b0316610dd88261096b565b6001600160a01b031614610e405760405162461bcd60e51b815260206004820152602960248201527f4552433732313a207472616e73666572206f6620746f6b656e2074686174206960448201526839903737ba1037bbb760b91b60648201526084016104f3565b6001600160a01b038216610ea25760405162461bcd60e51b8152602060048201526024808201527f4552433732313a207472616e7366657220746f20746865207a65726f206164646044820152637265737360e01b60648201526084016104f3565b610ead838383611336565b610eb8600082610c6d565b6001600160a01b0383166000908152600360205260408120805460019290610ee19084906122e6565b90915550506001600160a01b0382166000908152600360205260408120805460019290610f0f90849061229b565b909155505060008181526002602052604080822080546001600160a01b0319166001600160a01b0386811691821790925591518493918716917fddf252ad1be2c89b69c2b068fc378daa952ba7f163c4a11628f55a4df523b3ef91a4505050565b610f7a8282610a69565b61079657610f92816001600160a01b03166014611341565b610f9d836020611341565b604051602001610fae929190612133565b60408051601f198184030181529082905262461bcd60e51b82526104f3916004016121e5565b610fde8282610a69565b610796576000828152600b602090815260408083206001600160a01b03851684529091529020805460ff191660011790556110163390565b6001600160a01b0316816001600160a01b0316837f2f8788117e7eff1d82e926ec794901d17c78024a50270940304540a733656f0d60405160405180910390a45050565b6110648282610a69565b15610796576000828152600b602090815260408083206001600160a01b0385168085529252808320805460ff1916905551339285917ff6391f5c32d9c69d2a47ea670b442974b53935d1edc7fd64eb21e047a839171b9190a45050565b61082c8161152a565b6110d5848484610dc5565b6110e18484848461156a565b610b9a5760405162461bcd60e51b81526004016104f3906121f8565b606061110882610c50565b61116e5760405162461bcd60e51b815260206004820152603160248201527f45524337323155524953746f726167653a2055524920717565727920666f72206044820152703737b732bc34b9ba32b73a103a37b5b2b760791b60648201526084016104f3565b6000828152600a60205260408120805461118790612340565b80601f01602080910402602001604051908101604052809291908181526020018280546111b390612340565b80156112005780601f106111d557610100808354040283529160200191611200565b820191906000526020600020905b8154815290600101906020018083116111e357829003601f168201915b50505050509050600061121e60408051602081019091526000815290565b9050805160001415611231575092915050565b81511561126357808260405160200161124b929190612104565b60405160208183030381529060405292505050919050565b610dbd84611677565b61079682826040518060200160405280600081525061174e565b61128f82610c50565b6112f25760405162461bcd60e51b815260206004820152602e60248201527f45524337323155524953746f726167653a2055524920736574206f66206e6f6e60448201526d32bc34b9ba32b73a103a37b5b2b760911b60648201526084016104f3565b6000828152600a60209081526040909120825161062992840190611d43565b60006001600160e01b0319821663780e9d6360e01b14806103f357506103f382611781565b6106298383836117d1565b606060006113508360026122c7565b61135b90600261229b565b67ffffffffffffffff81111561138157634e487b7160e01b600052604160045260246000fd5b6040519080825280601f01601f1916602001820160405280156113ab576020820181803683370190505b509050600360fc1b816000815181106113d457634e487b7160e01b600052603260045260246000fd5b60200101906001600160f81b031916908160001a905350600f60fb1b8160018151811061141157634e487b7160e01b600052603260045260246000fd5b60200101906001600160f81b031916908160001a90535060006114358460026122c7565b61144090600161229b565b90505b60018111156114d4576f181899199a1a9b1b9c1cb0b131b232b360811b85600f166010811061148257634e487b7160e01b600052603260045260246000fd5b1a60f81b8282815181106114a657634e487b7160e01b600052603260045260246000fd5b60200101906001600160f81b031916908160001a90535060049490941c936114cd81612329565b9050611443565b5083156115235760405162461bcd60e51b815260206004820181905260248201527f537472696e67733a20686578206c656e67746820696e73756666696369656e7460448201526064016104f3565b9392505050565b61153381611889565b6000818152600a60205260409020805461154c90612340565b15905061082c576000818152600a6020526040812061082c91611dc7565b60006001600160a01b0384163b1561166c57604051630a85bd0160e11b81526001600160a01b0385169063150b7a02906115ae9033908990889088906004016121a8565b602060405180830381600087803b1580156115c857600080fd5b505af19250505080156115f8575060408051601f3d908101601f191682019092526115f5918101906120bc565b60015b611652573d808015611626576040519150601f19603f3d011682016040523d82523d6000602084013e61162b565b606091505b50805161164a5760405162461bcd60e51b81526004016104f3906121f8565b805181602001fd5b6001600160e01b031916630a85bd0160e11b149050610dbd565b506001949350505050565b606061168282610c50565b6116e65760405162461bcd60e51b815260206004820152602f60248201527f4552433732314d657461646174613a2055524920717565727920666f72206e6f60448201526e3732bc34b9ba32b73a103a37b5b2b760891b60648201526084016104f3565b60006116fd60408051602081019091526000815290565b9050600081511161171d5760405180602001604052806000815250611523565b8061172784611930565b604051602001611738929190612104565b6040516020818303038152906040529392505050565b6117588383611a4a565b611765600084848461156a565b6106295760405162461bcd60e51b81526004016104f3906121f8565b60006001600160e01b031982166380ac58cd60e01b14806117b257506001600160e01b03198216635b5e139f60e01b145b806103f357506301ffc9a760e01b6001600160e01b03198316146103f3565b6001600160a01b03831661182c5761182781600880546000838152600960205260408120829055600182018355919091527ff3f7a9fe364faab93b216da50a3214154f22a0a2b415b23a84c8169e8b636ee30155565b61184f565b816001600160a01b0316836001600160a01b03161461184f5761184f8382611b89565b6001600160a01b0382166118665761062981611c26565b826001600160a01b0316826001600160a01b031614610629576106298282611cff565b60006118948261096b565b90506118a281600084611336565b6118ad600083610c6d565b6001600160a01b03811660009081526003602052604081208054600192906118d69084906122e6565b909155505060008281526002602052604080822080546001600160a01b0319169055518391906001600160a01b038416907fddf252ad1be2c89b69c2b068fc378daa952ba7f163c4a11628f55a4df523b3ef908390a45050565b6060816119545750506040805180820190915260018152600360fc1b602082015290565b8160005b811561197e57806119688161237b565b91506119779050600a836122b3565b9150611958565b60008167ffffffffffffffff8111156119a757634e487b7160e01b600052604160045260246000fd5b6040519080825280601f01601f1916602001820160405280156119d1576020820181803683370190505b5090505b8415610dbd576119e66001836122e6565b91506119f3600a86612396565b6119fe90603061229b565b60f81b818381518110611a2157634e487b7160e01b600052603260045260246000fd5b60200101906001600160f81b031916908160001a905350611a43600a866122b3565b94506119d5565b6001600160a01b038216611aa05760405162461bcd60e51b815260206004820181905260248201527f4552433732313a206d696e7420746f20746865207a65726f206164647265737360448201526064016104f3565b611aa981610c50565b15611af65760405162461bcd60e51b815260206004820152601c60248201527f4552433732313a20746f6b656e20616c7265616479206d696e7465640000000060448201526064016104f3565b611b0260008383611336565b6001600160a01b0382166000908152600360205260408120805460019290611b2b90849061229b565b909155505060008181526002602052604080822080546001600160a01b0319166001600160a01b03861690811790915590518392907fddf252ad1be2c89b69c2b068fc378daa952ba7f163c4a11628f55a4df523b3ef908290a45050565b60006001611b96846109e2565b611ba091906122e6565b600083815260076020526040902054909150808214611bf3576001600160a01b03841660009081526006602090815260408083208584528252808320548484528184208190558352600790915290208190555b5060009182526007602090815260408084208490556001600160a01b039094168352600681528383209183525290812055565b600854600090611c38906001906122e6565b60008381526009602052604081205460088054939450909284908110611c6e57634e487b7160e01b600052603260045260246000fd5b906000526020600020015490508060088381548110611c9d57634e487b7160e01b600052603260045260246000fd5b6000918252602080832090910192909255828152600990915260408082208490558582528120556008805480611ce357634e487b7160e01b600052603160045260246000fd5b6001900381819060005260206000200160009055905550505050565b6000611d0a836109e2565b6001600160a01b039093166000908152600660209081526040808320868452825280832085905593825260079052919091209190915550565b828054611d4f90612340565b90600052602060002090601f016020900481019282611d715760008555611db7565b82601f10611d8a57805160ff1916838001178555611db7565b82800160010185558215611db7579182015b82811115611db7578251825591602001919060010190611d9c565b50611dc3929150611dfd565b5090565b508054611dd390612340565b6000825580601f10611de3575050565b601f01602090049060005260206000209081019061082c91905b5b80821115611dc35760008155600101611dfe565b600067ffffffffffffffff80841115611e2d57611e2d6123d6565b604051601f8501601f19908116603f01168101908282118183101715611e5557611e556123d6565b81604052809350858152868686011115611e6e57600080fd5b858560208301376000602087830101525050509392505050565b80356001600160a01b0381168114611e9f57600080fd5b919050565b600060208284031215611eb5578081fd5b61152382611e88565b60008060408385031215611ed0578081fd5b611ed983611e88565b9150611ee760208401611e88565b90509250929050565b600080600060608486031215611f04578081fd5b611f0d84611e88565b9250611f1b60208501611e88565b9150604084013590509250925092565b60008060008060808587031215611f40578081fd5b611f4985611e88565b9350611f5760208601611e88565b925060408501359150606085013567ffffffffffffffff811115611f79578182fd5b8501601f81018713611f89578182fd5b611f9887823560208401611e12565b91505092959194509250565b60008060408385031215611fb6578182fd5b611fbf83611e88565b915060208301358015158114611fd3578182fd5b809150509250929050565b60008060408385031215611ff0578182fd5b611ff983611e88565b9150602083013567ffffffffffffffff811115612014578182fd5b8301601f81018513612024578182fd5b61203385823560208401611e12565b9150509250929050565b6000806040838503121561204f578182fd5b61205883611e88565b946020939093013593505050565b600060208284031215612077578081fd5b5035919050565b60008060408385031215612090578182fd5b82359150611ee760208401611e88565b6000602082840312156120b1578081fd5b8135611523816123ec565b6000602082840312156120cd578081fd5b8151611523816123ec565b600081518084526120f08160208601602086016122fd565b601f01601f19169290920160200192915050565b600083516121168184602088016122fd565b83519083019061212a8183602088016122fd565b01949350505050565b7f416363657373436f6e74726f6c3a206163636f756e742000000000000000000081526000835161216b8160178501602088016122fd565b7001034b99036b4b9b9b4b733903937b6329607d1b601791840191820152835161219c8160288401602088016122fd565b01602801949350505050565b6001600160a01b03858116825284166020820152604081018390526080606082018190526000906121db908301846120d8565b9695505050505050565b60208152600061152360208301846120d8565b60208082526032908201527f4552433732313a207472616e7366657220746f206e6f6e20455243373231526560408201527131b2b4bb32b91034b6b83632b6b2b73a32b960711b606082015260800190565b60208082526031908201527f4552433732313a207472616e736665722063616c6c6572206973206e6f74206f6040820152701ddb995c881b9bdc88185c1c1c9bdd9959607a1b606082015260800190565b600082198211156122ae576122ae6123aa565b500190565b6000826122c2576122c26123c0565b500490565b60008160001904831182151516156122e1576122e16123aa565b500290565b6000828210156122f8576122f86123aa565b500390565b60005b83811015612318578181015183820152602001612300565b83811115610b9a5750506000910152565b600081612338576123386123aa565b506000190190565b600181811c9082168061235457607f821691505b6020821081141561237557634e487b7160e01b600052602260045260246000fd5b50919050565b600060001982141561238f5761238f6123aa565b5060010190565b6000826123a5576123a56123c0565b500690565b634e487b7160e01b600052601160045260246000fd5b634e487b7160e01b600052601260045260246000fd5b634e487b7160e01b600052604160045260246000fd5b6001600160e01b03198116811461082c57600080fdfea2646970667358221220bfc7c40812e8346aa1be190bf2756e5f2bfeda197105f4667ccc82b5f534e4cb64736f6c63430008040033",
  "linkReferences": {},
  "deployedLinkReferences": {}
}