{
  "_format": "hh-sol-artifact-1",
  "contractName": "Occuland",
  "sourceName": "contracts/Occuland.sol",
  "abi": [
    {
      "inputs": [
        {
          "internalType": "address",
          "name": "_minterAccount",
          "type": "address"
        }
      ],
      "stateMutability": "nonpayable",
      "type": "constructor"
    },
    {
      "anonymous": false,
      "inputs": [
        {
          "indexed": true,
          "internalType": "address",
          "name": "owner",
          "type": "address"
        },
        {
          "indexed": true,
          "internalType": "address",
          "name": "approved",
          "type": "address"
        },
        {
          "indexed": true,
          "internalType": "uint256",
          "name": "tokenId",
          "type": "uint256"
        }
      ],
      "name": "Approval",
      "type": "event"
    },
    {
      "anonymous": false,
      "inputs": [
        {
          "indexed": true,
          "internalType": "address",
          "name": "owner",
          "type": "address"
        },
        {
          "indexed": true,
          "internalType": "address",
          "name": "operator",
          "type": "address"
        },
        {
          "indexed": false,
          "internalType": "bool",
          "name": "approved",
          "type": "bool"
        }
      ],
      "name": "ApprovalForAll",
      "type": "event"
    },
    {
      "anonymous": false,
      "inputs": [
        {
          "indexed": false,
          "internalType": "address",
          "name": "from",
          "type": "address"
        },
        {
          "indexed": false,
          "internalType": "uint256",
          "name": "tokenId",
          "type": "uint256"
        },
        {
          "indexed": false,
          "internalType": "string",
          "name": "assetId",
          "type": "string"
        }
      ],
      "name": "BridgeBack",
      "type": "event"
    },
    {
      "anonymous": false,
      "inputs": [
        {
          "indexed": false,
          "internalType": "address",
          "name": "to",
          "type": "address"
        },
        {
          "indexed": false,
          "internalType": "uint256",
          "name": "tokenId",
          "type": "uint256"
        },
        {
          "indexed": false,
          "internalType": "string",
          "name": "assetId",
          "type": "string"
        }
      ],
      "name": "MintedAsset",
      "type": "event"
    },
    {
      "anonymous": false,
      "inputs": [
        {
          "indexed": false,
          "internalType": "address",
          "name": "leasor",
          "type": "address"
        },
        {
          "indexed": false,
          "internalType": "address",
          "name": "leasee",
          "type": "address"
        },
        {
          "indexed": false,
          "internalType": "uint256",
          "name": "tokenId",
          "type": "uint256"
        },
        {
          "indexed": false,
          "internalType": "string",
          "name": "assetId",
          "type": "string"
        }
      ],
      "name": "OccupyAsset",
      "type": "event"
    },
    {
      "anonymous": false,
      "inputs": [
        {
          "indexed": false,
          "internalType": "address",
          "name": "leasor",
          "type": "address"
        },
        {
          "indexed": false,
          "internalType": "address",
          "name": "leasee",
          "type": "address"
        },
        {
          "indexed": false,
          "internalType": "uint256",
          "name": "tokenId",
          "type": "uint256"
        },
        {
          "indexed": false,
          "internalType": "string",
          "name": "assetId",
          "type": "string"
        }
      ],
      "name": "ReleaseAsset",
      "type": "event"
    },
    {
      "anonymous": false,
      "inputs": [
        {
          "indexed": true,
          "internalType": "bytes32",
          "name": "role",
          "type": "bytes32"
        },
        {
          "indexed": true,
          "internalType": "bytes32",
          "name": "previousAdminRole",
          "type": "bytes32"
        },
        {
          "indexed": true,
          "internalType": "bytes32",
          "name": "newAdminRole",
          "type": "bytes32"
        }
      ],
      "name": "RoleAdminChanged",
      "type": "event"
    },
    {
      "anonymous": false,
      "inputs": [
        {
          "indexed": true,
          "internalType": "bytes32",
          "name": "role",
          "type": "bytes32"
        },
        {
          "indexed": true,
          "internalType": "address",
          "name": "account",
          "type": "address"
        },
        {
          "indexed": true,
          "internalType": "address",
          "name": "sender",
          "type": "address"
        }
      ],
      "name": "RoleGranted",
      "type": "event"
    },
    {
      "anonymous": false,
      "inputs": [
        {
          "indexed": true,
          "internalType": "bytes32",
          "name": "role",
          "type": "bytes32"
        },
        {
          "indexed": true,
          "internalType": "address",
          "name": "account",
          "type": "address"
        },
        {
          "indexed": true,
          "internalType": "address",
          "name": "sender",
          "type": "address"
        }
      ],
      "name": "RoleRevoked",
      "type": "event"
    },
    {
      "anonymous": false,
      "inputs": [
        {
          "indexed": true,
          "internalType": "address",
          "name": "from",
          "type": "address"
        },
        {
          "indexed": true,
          "internalType": "address",
          "name": "to",
          "type": "address"
        },
        {
          "indexed": true,
          "internalType": "uint256",
          "name": "tokenId",
          "type": "uint256"
        }
      ],
      "name": "Transfer",
      "type": "event"
    },
    {
      "inputs": [],
      "name": "DEFAULT_ADMIN_ROLE",
      "outputs": [
        {
          "internalType": "bytes32",
          "name": "",
          "type": "bytes32"
        }
      ],
      "stateMutability": "view",
      "type": "function"
    },
    {
      "inputs": [],
      "name": "MINTER_ROLE",
      "outputs": [
        {
          "internalType": "bytes32",
          "name": "",
          "type": "bytes32"
        }
      ],
      "stateMutability": "view",
      "type": "function"
    },
    {
      "inputs": [
        {
          "internalType": "address",
          "name": "to",
          "type": "address"
        },
        {
          "internalType": "uint256",
          "name": "tokenId",
          "type": "uint256"
        }
      ],
      "name": "approve",
      "outputs": [],
      "stateMutability": "nonpayable",
      "type": "function"
    },
    {
      "inputs": [
        {
          "internalType": "address",
          "name": "owner",
          "type": "address"
        }
      ],
      "name": "balanceOf",
      "outputs": [
        {
          "internalType": "uint256",
          "name": "",
          "type": "uint256"
        }
      ],
      "stateMutability": "view",
      "type": "function"
    },
    {
      "inputs": [
        {
          "internalType": "uint256",
          "name": "_tokenId",
          "type": "uint256"
        }
      ],
      "name": "bridgeBack",
      "outputs": [],
      "stateMutability": "nonpayable",
      "type": "function"
    },
    {
      "inputs": [
        {
          "internalType": "uint256",
          "name": "tokenId",
          "type": "uint256"
        }
      ],
      "name": "burn",
      "outputs": [],
      "stateMutability": "nonpayable",
      "type": "function"
    },
    {
      "inputs": [
        {
          "internalType": "uint256",
          "name": "tokenId",
          "type": "uint256"
        }
      ],
      "name": "getApproved",
      "outputs": [
        {
          "internalType": "address",
          "name": "",
          "type": "address"
        }
      ],
      "stateMutability": "view",
      "type": "function"
    },
    {
      "inputs": [
        {
          "internalType": "bytes32",
          "name": "role",
          "type": "bytes32"
        }
      ],
      "name": "getRoleAdmin",
      "outputs": [
        {
          "internalType": "bytes32",
          "name": "",
          "type": "bytes32"
        }
      ],
      "stateMutability": "view",
      "type": "function"
    },
    {
      "inputs": [
        {
          "internalType": "bytes32",
          "name": "role",
          "type": "bytes32"
        },
        {
          "internalType": "address",
          "name": "account",
          "type": "address"
        }
      ],
      "name": "grantRole",
      "outputs": [],
      "stateMutability": "nonpayable",
      "type": "function"
    },
    {
      "inputs": [
        {
          "internalType": "bytes32",
          "name": "role",
          "type": "bytes32"
        },
        {
          "internalType": "address",
          "name": "account",
          "type": "address"
        }
      ],
      "name": "hasRole",
      "outputs": [
        {
          "internalType": "bool",
          "name": "",
          "type": "bool"
        }
      ],
      "stateMutability": "view",
      "type": "function"
    },
    {
      "inputs": [
        {
          "internalType": "address",
          "name": "owner",
          "type": "address"
        },
        {
          "internalType": "address",
          "name": "operator",
          "type": "address"
        }
      ],
      "name": "isApprovedForAll",
      "outputs": [
        {
          "internalType": "bool",
          "name": "",
          "type": "bool"
        }
      ],
      "stateMutability": "view",
      "type": "function"
    },
    {
      "inputs": [
        {
          "internalType": "address",
          "name": "to",
          "type": "address"
        },
        {
          "internalType": "string",
          "name": "assetId",
          "type": "string"
        },
        {
          "internalType": "string",
          "name": "assetURI",
          "type": "string"
        }
      ],
      "name": "mint",
      "outputs": [],
      "stateMutability": "nonpayable",
      "type": "function"
    },
    {
      "inputs": [],
      "name": "name",
      "outputs": [
        {
          "internalType": "string",
          "name": "",
          "type": "string"
        }
      ],
      "stateMutability": "view",
      "type": "function"
    },
    {
      "inputs": [
        {
          "internalType": "uint256",
          "name": "tokenId",
          "type": "uint256"
        }
      ],
      "name": "ownerOf",
      "outputs": [
        {
          "internalType": "address",
          "name": "",
          "type": "address"
        }
      ],
      "stateMutability": "view",
      "type": "function"
    },
    {
      "inputs": [
        {
          "internalType": "bytes32",
          "name": "role",
          "type": "bytes32"
        },
        {
          "internalType": "address",
          "name": "account",
          "type": "address"
        }
      ],
      "name": "renounceRole",
      "outputs": [],
      "stateMutability": "nonpayable",
      "type": "function"
    },
    {
      "inputs": [
        {
          "internalType": "bytes32",
          "name": "role",
          "type": "bytes32"
        },
        {
          "internalType": "address",
          "name": "account",
          "type": "address"
        }
      ],
      "name": "revokeRole",
      "outputs": [],
      "stateMutability": "nonpayable",
      "type": "function"
    },
    {
      "inputs": [
        {
          "internalType": "address",
          "name": "from",
          "type": "address"
        },
        {
          "internalType": "address",
          "name": "to",
          "type": "address"
        },
        {
          "internalType": "uint256",
          "name": "tokenId",
          "type": "uint256"
        }
      ],
      "name": "safeTransferFrom",
      "outputs": [],
      "stateMutability": "nonpayable",
      "type": "function"
    },
    {
      "inputs": [
        {
          "internalType": "address",
          "name": "from",
          "type": "address"
        },
        {
          "internalType": "address",
          "name": "to",
          "type": "address"
        },
        {
          "internalType": "uint256",
          "name": "tokenId",
          "type": "uint256"
        },
        {
          "internalType": "bytes",
          "name": "_data",
          "type": "bytes"
        }
      ],
      "name": "safeTransferFrom",
      "outputs": [],
      "stateMutability": "nonpayable",
      "type": "function"
    },
    {
      "inputs": [
        {
          "internalType": "address",
          "name": "operator",
          "type": "address"
        },
        {
          "internalType": "bool",
          "name": "approved",
          "type": "bool"
        }
      ],
      "name": "setApprovalForAll",
      "outputs": [],
      "stateMutability": "nonpayable",
      "type": "function"
    },
    {
      "inputs": [
        {
          "internalType": "uint256",
          "name": "_tokenId",
          "type": "uint256"
        },
        {
          "internalType": "uint256",
          "name": "_newPeriod",
          "type": "uint256"
        },
        {
          "internalType": "string",
          "name": "_newURI",
          "type": "string"
        }
      ],
      "name": "setLeasingPeriod",
      "outputs": [],
      "stateMutability": "nonpayable",
      "type": "function"
    },
    {
      "inputs": [
        {
          "internalType": "uint256",
          "name": "_tokenId",
          "type": "uint256"
        },
        {
          "internalType": "uint256",
          "name": "_newPrice",
          "type": "uint256"
        },
        {
          "internalType": "string",
          "name": "_newURI",
          "type": "string"
        }
      ],
      "name": "setLeasingPrice",
      "outputs": [],
      "stateMutability": "nonpayable",
      "type": "function"
    },
    {
      "inputs": [
        {
          "internalType": "uint256",
          "name": "_tokenId",
          "type": "uint256"
        },
        {
          "internalType": "string",
          "name": "_newURI",
          "type": "string"
        }
      ],
      "name": "setRented",
      "outputs": [],
      "stateMutability": "nonpayable",
      "type": "function"
    },
    {
      "inputs": [
        {
          "internalType": "uint256",
          "name": "_tokenId",
          "type": "uint256"
        },
        {
          "internalType": "string",
          "name": "_newURI",
          "type": "string"
        }
      ],
      "name": "setTokenURI",
      "outputs": [],
      "stateMutability": "nonpayable",
      "type": "function"
    },
    {
      "inputs": [],
      "name": "signer",
      "outputs": [
        {
          "internalType": "address",
          "name": "",
          "type": "address"
        }
      ],
      "stateMutability": "view",
      "type": "function"
    },
    {
      "inputs": [
        {
          "internalType": "bytes4",
          "name": "interfaceId",
          "type": "bytes4"
        }
      ],
      "name": "supportsInterface",
      "outputs": [
        {
          "internalType": "bool",
          "name": "",
          "type": "bool"
        }
      ],
      "stateMutability": "view",
      "type": "function"
    },
    {
      "inputs": [],
      "name": "symbol",
      "outputs": [
        {
          "internalType": "string",
          "name": "",
          "type": "string"
        }
      ],
      "stateMutability": "view",
      "type": "function"
    },
    {
      "inputs": [
        {
          "internalType": "uint256",
          "name": "index",
          "type": "uint256"
        }
      ],
      "name": "tokenByIndex",
      "outputs": [
        {
          "internalType": "uint256",
          "name": "",
          "type": "uint256"
        }
      ],
      "stateMutability": "view",
      "type": "function"
    },
    {
      "inputs": [
        {
          "internalType": "address",
          "name": "",
          "type": "address"
        },
        {
          "internalType": "uint256",
          "name": "",
          "type": "uint256"
        }
      ],
      "name": "tokenLeasingInfo",
      "outputs": [
        {
          "internalType": "uint256",
          "name": "tokenId",
          "type": "uint256"
        },
        {
          "internalType": "string",
          "name": "assetId",
          "type": "string"
        },
        {
          "internalType": "string",
          "name": "assetURI",
          "type": "string"
        },
        {
          "internalType": "uint256",
          "name": "minimumRentalPeriod",
          "type": "uint256"
        },
        {
          "internalType": "uint256",
          "name": "minimumRentalPrice",
          "type": "uint256"
        },
        {
          "internalType": "bool",
          "name": "rented",
          "type": "bool"
        }
      ],
      "stateMutability": "view",
      "type": "function"
    },
    {
      "inputs": [
        {
          "internalType": "address",
          "name": "owner",
          "type": "address"
        },
        {
          "internalType": "uint256",
          "name": "index",
          "type": "uint256"
        }
      ],
      "name": "tokenOfOwnerByIndex",
      "outputs": [
        {
          "internalType": "uint256",
          "name": "",
          "type": "uint256"
        }
      ],
      "stateMutability": "view",
      "type": "function"
    },
    {
      "inputs": [
        {
          "internalType": "uint256",
          "name": "tokenId",
          "type": "uint256"
        }
      ],
      "name": "tokenURI",
      "outputs": [
        {
          "internalType": "string",
          "name": "",
          "type": "string"
        }
      ],
      "stateMutability": "view",
      "type": "function"
    },
    {
      "inputs": [],
      "name": "totalSupply",
      "outputs": [
        {
          "internalType": "uint256",
          "name": "",
          "type": "uint256"
        }
      ],
      "stateMutability": "view",
      "type": "function"
    },
    {
      "inputs": [
        {
          "internalType": "address",
          "name": "from",
          "type": "address"
        },
        {
          "internalType": "address",
          "name": "to",
          "type": "address"
        },
        {
          "internalType": "uint256",
          "name": "tokenId",
          "type": "uint256"
        }
      ],
      "name": "transferFrom",
      "outputs": [],
      "stateMutability": "nonpayable",
      "type": "function"
    }
  ],
  "bytecode": "0x6101406040523480156200001257600080fd5b50604051620030833803806200308383398101604081905262000035916200031f565b6040518060400160405280600681526020016513d0d0d3139160d21b815250604051806040016040528060018152602001603160f81b8152506040518060400160405280601381526020017f4f6363756c616e643a204e4654204173736574000000000000000000000000008152506040518060400160405280600681526020016513d0d0d3139160d21b8152508160009080519060200190620000db92919062000279565b508051620000f190600190602084019062000279565b5050825160209384012082519284019290922060c083815260e08290524660a0818152604080517f8b73c3c69bb8fe3d512ecc4cf759cc79239f7b179b0ffacaa9a75d522b39400f818a0181905281830198909852606081019590955260808086019390935230858301528051808603909201825293909201909252805194019390932090925261010052506200018a600033620001c5565b620001b67f9f2df0fed2c77648de5860a4cc508cd0818c85b8b8a1ab4ceeef8d981c8956a682620001c5565b503360601b610120526200038c565b620001d18282620001d5565b5050565b6000828152600b602090815260408083206001600160a01b038516845290915290205460ff16620001d1576000828152600b602090815260408083206001600160a01b03851684529091529020805460ff19166001179055620002353390565b6001600160a01b0316816001600160a01b0316837f2f8788117e7eff1d82e926ec794901d17c78024a50270940304540a733656f0d60405160405180910390a45050565b82805462000287906200034f565b90600052602060002090601f016020900481019282620002ab5760008555620002f6565b82601f10620002c657805160ff1916838001178555620002f6565b82800160010185558215620002f6579182015b82811115620002f6578251825591602001919060010190620002d9565b506200030492915062000308565b5090565b5b8082111562000304576000815560010162000309565b60006020828403121562000331578081fd5b81516001600160a01b038116811462000348578182fd5b9392505050565b600181811c908216806200036457607f821691505b602082108114156200038657634e487b7160e01b600052602260045260246000fd5b50919050565b60805160a05160c05160e051610100516101205160601c612cb3620003d0600039600061029c01526000505060005050600050506000505060005050612cb36000f3fe608060405234801561001057600080fd5b50600436106101f05760003560e01c80634f6ccce71161010f578063a217fddf116100a2578063d539139311610071578063d539139314610459578063d547741f14610480578063e985e9c514610493578063fe095f29146104cf57600080fd5b8063a217fddf14610418578063a22cb46514610420578063b88d4fde14610433578063c87b56dd1461044657600080fd5b806391d14854116100de57806391d14854146103d75780639264cb70146103ea57806395d89b41146103fd578063990711901461040557600080fd5b80634f6ccce71461038b5780636352211e1461039e5780636464972c146103b157806370a08231146103c457600080fd5b8063248a9ca3116101875780633c600a2f116101565780633c600a2f1461032d57806342842e0e1461035257806342966c681461036557806343f00db41461037857600080fd5b8063248a9ca3146102d15780632f2ff15d146102f45780632f745c591461030757806336568abe1461031a57600080fd5b8063162094c4116101c3578063162094c41461027257806318160ddd14610285578063238ac9331461029757806323b872dd146102be57600080fd5b806301ffc9a7146101f557806306fdde031461021d578063081812fc14610232578063095ea7b31461025d575b600080fd5b6102086102033660046127f3565b6104e2565b60405190151581526020015b60405180910390f35b6102256104f3565b60405161021491906129f1565b6102456102403660046127b9565b610585565b6040516001600160a01b039091168152602001610214565b61027061026b366004612790565b610612565b005b61027061028036600461282b565b610728565b6008545b604051908152602001610214565b6102457f000000000000000000000000000000000000000000000000000000000000000081565b6102706102cc366004612631565b6107de565b6102896102df3660046127b9565b6000908152600b602052604090206001015490565b6102706103023660046127d1565b610810565b610289610315366004612790565b610836565b6102706103283660046127d1565b6108cc565b61034061033b366004612790565b610946565b60405161021496959493929190612aca565b610270610360366004612631565b610a9b565b6102706103733660046127b9565b610ab6565b6102706103863660046127b9565b610b30565b6102896103993660046127b9565b610c7f565b6102456103ac3660046127b9565b610d20565b6102706103bf36600461282b565b610d97565b6102896103d23660046125e5565b610e5e565b6102086103e53660046127d1565b610ee5565b6102706103f8366004612870565b610f10565b610225610fa6565b61027061041336600461271f565b610fb5565b610289600081565b61027061042e3660046126e5565b611062565b61027061044136600461266c565b611127565b6102256104543660046127b9565b611159565b6102897f9f2df0fed2c77648de5860a4cc508cd0818c85b8b8a1ab4ceeef8d981c8956a681565b61027061048e3660046127d1565b611164565b6102086104a13660046125ff565b6001600160a01b03918216600090815260056020908152604080832093909416825291909152205460ff1690565b6102706104dd366004612870565b61118a565b60006104ed8261120f565b92915050565b60606000805461050290612bbb565b80601f016020809104026020016040519081016040528092919081815260200182805461052e90612bbb565b801561057b5780601f106105505761010080835404028352916020019161057b565b820191906000526020600020905b81548152906001019060200180831161055e57829003601f168201915b5050505050905090565b600061059082611234565b6105f65760405162461bcd60e51b815260206004820152602c60248201527f4552433732313a20617070726f76656420717565727920666f72206e6f6e657860448201526b34b9ba32b73a103a37b5b2b760a11b60648201526084015b60405180910390fd5b506000908152600460205260409020546001600160a01b031690565b600061061d82610d20565b9050806001600160a01b0316836001600160a01b0316141561068b5760405162461bcd60e51b815260206004820152602160248201527f4552433732313a20617070726f76616c20746f2063757272656e74206f776e656044820152603960f91b60648201526084016105ed565b336001600160a01b03821614806106a757506106a781336104a1565b6107195760405162461bcd60e51b815260206004820152603860248201527f4552433732313a20617070726f76652063616c6c6572206973206e6f74206f7760448201527f6e6572206e6f7220617070726f76656420666f7220616c6c000000000000000060648201526084016105ed565b6107238383611251565b505050565b61073182610d20565b6001600160a01b0316336001600160a01b0316148061074f57503330145b6107875760405162461bcd60e51b81526020600482015260096024820152683737b716b7bbb732b960b91b60448201526064016105ed565b80600d600061079585610d20565b6001600160a01b031681526020808201929092526040908101600090812086825283522082516107cf936002909201929190910190612465565b506107da82826112bf565b5050565b6107e9335b8261134a565b6108055760405162461bcd60e51b81526004016105ed90612a79565b610723838383611434565b6000828152600b602052604090206001015461082c81336115df565b6107238383611643565b600061084183610e5e565b82106108a35760405162461bcd60e51b815260206004820152602b60248201527f455243373231456e756d657261626c653a206f776e657220696e646578206f7560448201526a74206f6620626f756e647360a81b60648201526084016105ed565b506001600160a01b03919091166000908152600660209081526040808320938352929052205490565b6001600160a01b038116331461093c5760405162461bcd60e51b815260206004820152602f60248201527f416363657373436f6e74726f6c3a2063616e206f6e6c792072656e6f756e636560448201526e103937b632b9903337b91039b2b63360891b60648201526084016105ed565b6107da82826116c9565b600d6020908152600092835260408084209091529082529020805460018201805491929161097390612bbb565b80601f016020809104026020016040519081016040528092919081815260200182805461099f90612bbb565b80156109ec5780601f106109c1576101008083540402835291602001916109ec565b820191906000526020600020905b8154815290600101906020018083116109cf57829003601f168201915b505050505090806002018054610a0190612bbb565b80601f0160208091040260200160405190810160405280929190818152602001828054610a2d90612bbb565b8015610a7a5780601f10610a4f57610100808354040283529160200191610a7a565b820191906000526020600020905b815481529060010190602001808311610a5d57829003601f168201915b50505050600383015460048401546005909401549293909290915060ff1686565b61072383838360405180602001604052806000815250611127565b610abf336107e3565b610b245760405162461bcd60e51b815260206004820152603060248201527f4552433732314275726e61626c653a2063616c6c6572206973206e6f74206f7760448201526f1b995c881b9bdc88185c1c1c9bdd995960821b60648201526084016105ed565b610b2d81611730565b50565b610b3981610d20565b6001600160a01b0316336001600160a01b031614610b695760405162461bcd60e51b81526004016105ed90612a56565b6000600d6000610b7884610d20565b6001600160a01b03166001600160a01b0316815260200190815260200160002060008381526020019081526020016000206001018054610bb790612bbb565b80601f0160208091040260200160405190810160405280929190818152602001828054610be390612bbb565b8015610c305780601f10610c0557610100808354040283529160200191610c30565b820191906000526020600020905b815481529060010190602001808311610c1357829003601f168201915b50505050509050610c4082611730565b7f2bb6f1cdffe67902de8f734b9f72e49d70251aea0212b02d66eb0c0947edad93338383604051610c73939291906129c1565b60405180910390a15050565b6000610c8a60085490565b8210610ced5760405162461bcd60e51b815260206004820152602c60248201527f455243373231456e756d657261626c653a20676c6f62616c20696e646578206f60448201526b7574206f6620626f756e647360a01b60648201526084016105ed565b60088281548110610d0e57634e487b7160e01b600052603260045260246000fd5b90600052602060002001549050919050565b6000818152600260205260408120546001600160a01b0316806104ed5760405162461bcd60e51b815260206004820152602960248201527f4552433732313a206f776e657220717565727920666f72206e6f6e657869737460448201526832b73a103a37b5b2b760b91b60648201526084016105ed565b6000610da283610d20565b6001600160a01b0381166000908152600d6020908152604080832087845290915290206005015490915060ff1615610e0d5760405162461bcd60e51b815260206004820152600e60248201526d185b1c9958591e481c995b9d195960921b60448201526064016105ed565b6001600160a01b0381166000908152600d60209081526040808320868452825290912060058101805460ff191660011790558351610e5392600290920191850190612465565b506107238383610728565b60006001600160a01b038216610ec95760405162461bcd60e51b815260206004820152602a60248201527f4552433732313a2062616c616e636520717565727920666f7220746865207a65604482015269726f206164647265737360b01b60648201526084016105ed565b506001600160a01b031660009081526003602052604090205490565b6000918252600b602090815260408084206001600160a01b0393909316845291905290205460ff1690565b610f1983610d20565b6001600160a01b0316336001600160a01b031614610f495760405162461bcd60e51b81526004016105ed90612a56565b6000610f5484610d20565b6001600160a01b0381166000908152600d602090815260408083208884528252909120600481018690558451929350610f9592600290910191850190612465565b50610fa08483610728565b50505050565b60606001805461050290612bbb565b7f9f2df0fed2c77648de5860a4cc508cd0818c85b8b8a1ab4ceeef8d981c8956a6610fe081336115df565b610fee600c80546001019055565b6000610ff9600c5490565b90506110058582611739565b61100f81856112bf565b611020858286866000806000611753565b7f9cf62ec1116bfcc57268296ec3dcd5e0b574077402248e20fe6e76e16593d42a858286604051611053939291906129c1565b60405180910390a15050505050565b6001600160a01b0382163314156110bb5760405162461bcd60e51b815260206004820152601960248201527f4552433732313a20617070726f766520746f2063616c6c65720000000000000060448201526064016105ed565b3360008181526005602090815260408083206001600160a01b03871680855290835292819020805460ff191686151590811790915590519081529192917f17307eab39ab6107e8899845ad3d59bd9653f200f220920489ca2b5937696c31910160405180910390a35050565b611131338361134a565b61114d5760405162461bcd60e51b81526004016105ed90612a79565b610fa084848484611891565b60606104ed826118c4565b6000828152600b602052604090206001015461118081336115df565b61072383836116c9565b61119383610d20565b6001600160a01b0316336001600160a01b0316146111c35760405162461bcd60e51b81526004016105ed90612a56565b60006111ce84610d20565b6001600160a01b0381166000908152600d602090815260408083208884528252909120600381018690558451929350610f9592600290910191850190612465565b60006001600160e01b03198216637965db0b60e01b14806104ed57506104ed82611a33565b6000908152600260205260409020546001600160a01b0316151590565b600081815260046020526040902080546001600160a01b0319166001600160a01b038416908117909155819061128682610d20565b6001600160a01b03167f8c5be1e5ebec7d5bd14f71427d1e84f3dd0314c0f7b2291e5b200ac8c7c3b92560405160405180910390a45050565b6112c882611234565b61132b5760405162461bcd60e51b815260206004820152602e60248201527f45524337323155524953746f726167653a2055524920736574206f66206e6f6e60448201526d32bc34b9ba32b73a103a37b5b2b760911b60648201526084016105ed565b6000828152600a60209081526040909120825161072392840190612465565b600061135582611234565b6113b65760405162461bcd60e51b815260206004820152602c60248201527f4552433732313a206f70657261746f7220717565727920666f72206e6f6e657860448201526b34b9ba32b73a103a37b5b2b760a11b60648201526084016105ed565b60006113c183610d20565b9050806001600160a01b0316846001600160a01b031614806113fc5750836001600160a01b03166113f184610585565b6001600160a01b0316145b8061142c57506001600160a01b0380821660009081526005602090815260408083209388168352929052205460ff165b949350505050565b826001600160a01b031661144782610d20565b6001600160a01b0316146114af5760405162461bcd60e51b815260206004820152602960248201527f4552433732313a207472616e73666572206f6620746f6b656e2074686174206960448201526839903737ba1037bbb760b91b60648201526084016105ed565b6001600160a01b0382166115115760405162461bcd60e51b8152602060048201526024808201527f4552433732313a207472616e7366657220746f20746865207a65726f206164646044820152637265737360e01b60648201526084016105ed565b61151c838383611a58565b611527600082611251565b6001600160a01b0383166000908152600360205260408120805460019290611550908490612b61565b90915550506001600160a01b038216600090815260036020526040812080546001929061157e908490612b16565b909155505060008181526002602052604080822080546001600160a01b0319166001600160a01b0386811691821790925591518493918716917fddf252ad1be2c89b69c2b068fc378daa952ba7f163c4a11628f55a4df523b3ef91a4505050565b6115e98282610ee5565b6107da57611601816001600160a01b03166014611a63565b61160c836020611a63565b60405160200161161d92919061290f565b60408051601f198184030181529082905262461bcd60e51b82526105ed916004016129f1565b61164d8282610ee5565b6107da576000828152600b602090815260408083206001600160a01b03851684529091529020805460ff191660011790556116853390565b6001600160a01b0316816001600160a01b0316837f2f8788117e7eff1d82e926ec794901d17c78024a50270940304540a733656f0d60405160405180910390a45050565b6116d38282610ee5565b156107da576000828152600b602090815260408083206001600160a01b0385168085529252808320805460ff1916905551339285917ff6391f5c32d9c69d2a47ea670b442974b53935d1edc7fd64eb21e047a839171b9190a45050565b610b2d81611c4c565b6107da828260405180602001604052806000815250611c8c565b7f9f2df0fed2c77648de5860a4cc508cd0818c85b8b8a1ab4ceeef8d981c8956a661177e81336115df565b61178787610d20565b6001600160a01b0316886001600160a01b03161480156117a657503330145b6117c25760405162461bcd60e51b81526004016105ed90612a56565b60006117cd88610d20565b6001600160a01b0381166000908152600d602090815260408083208c845282529091208a8155895192935061180a926001909101918a0190612465565b506001600160a01b0381166000908152600d602090815260408083208b84528252909120875161184292600290920191890190612465565b506001600160a01b03166000908152600d6020908152604080832099835298905296909620600381019390935560048301919091556005909101805460ff191691151591909117905550505050565b61189c848484611434565b6118a884848484611cbf565b610fa05760405162461bcd60e51b81526004016105ed90612a04565b60606118cf82611234565b6119355760405162461bcd60e51b815260206004820152603160248201527f45524337323155524953746f726167653a2055524920717565727920666f72206044820152703737b732bc34b9ba32b73a103a37b5b2b760791b60648201526084016105ed565b6000828152600a60205260408120805461194e90612bbb565b80601f016020809104026020016040519081016040528092919081815260200182805461197a90612bbb565b80156119c75780601f1061199c576101008083540402835291602001916119c7565b820191906000526020600020905b8154815290600101906020018083116119aa57829003601f168201915b5050505050905060006119e560408051602081019091526000815290565b90508051600014156119f8575092915050565b815115611a2a578082604051602001611a129291906128e0565b60405160208183030381529060405292505050919050565b61142c84611dcc565b60006001600160e01b0319821663780e9d6360e01b14806104ed57506104ed82611ea3565b610723838383611ef3565b60606000611a72836002612b42565b611a7d906002612b16565b67ffffffffffffffff811115611aa357634e487b7160e01b600052604160045260246000fd5b6040519080825280601f01601f191660200182016040528015611acd576020820181803683370190505b509050600360fc1b81600081518110611af657634e487b7160e01b600052603260045260246000fd5b60200101906001600160f81b031916908160001a905350600f60fb1b81600181518110611b3357634e487b7160e01b600052603260045260246000fd5b60200101906001600160f81b031916908160001a9053506000611b57846002612b42565b611b62906001612b16565b90505b6001811115611bf6576f181899199a1a9b1b9c1cb0b131b232b360811b85600f1660108110611ba457634e487b7160e01b600052603260045260246000fd5b1a60f81b828281518110611bc857634e487b7160e01b600052603260045260246000fd5b60200101906001600160f81b031916908160001a90535060049490941c93611bef81612ba4565b9050611b65565b508315611c455760405162461bcd60e51b815260206004820181905260248201527f537472696e67733a20686578206c656e67746820696e73756666696369656e7460448201526064016105ed565b9392505050565b611c5581611fab565b6000818152600a602052604090208054611c6e90612bbb565b159050610b2d576000818152600a60205260408120610b2d916124e9565b611c968383612052565b611ca36000848484611cbf565b6107235760405162461bcd60e51b81526004016105ed90612a04565b60006001600160a01b0384163b15611dc157604051630a85bd0160e11b81526001600160a01b0385169063150b7a0290611d03903390899088908890600401612984565b602060405180830381600087803b158015611d1d57600080fd5b505af1925050508015611d4d575060408051601f3d908101601f19168201909252611d4a9181019061280f565b60015b611da7573d808015611d7b576040519150601f19603f3d011682016040523d82523d6000602084013e611d80565b606091505b508051611d9f5760405162461bcd60e51b81526004016105ed90612a04565b805181602001fd5b6001600160e01b031916630a85bd0160e11b14905061142c565b506001949350505050565b6060611dd782611234565b611e3b5760405162461bcd60e51b815260206004820152602f60248201527f4552433732314d657461646174613a2055524920717565727920666f72206e6f60448201526e3732bc34b9ba32b73a103a37b5b2b760891b60648201526084016105ed565b6000611e5260408051602081019091526000815290565b90506000815111611e725760405180602001604052806000815250611c45565b80611e7c84612191565b604051602001611e8d9291906128e0565b6040516020818303038152906040529392505050565b60006001600160e01b031982166380ac58cd60e01b1480611ed457506001600160e01b03198216635b5e139f60e01b145b806104ed57506301ffc9a760e01b6001600160e01b03198316146104ed565b6001600160a01b038316611f4e57611f4981600880546000838152600960205260408120829055600182018355919091527ff3f7a9fe364faab93b216da50a3214154f22a0a2b415b23a84c8169e8b636ee30155565b611f71565b816001600160a01b0316836001600160a01b031614611f7157611f7183826122ab565b6001600160a01b038216611f885761072381612348565b826001600160a01b0316826001600160a01b031614610723576107238282612421565b6000611fb682610d20565b9050611fc481600084611a58565b611fcf600083611251565b6001600160a01b0381166000908152600360205260408120805460019290611ff8908490612b61565b909155505060008281526002602052604080822080546001600160a01b0319169055518391906001600160a01b038416907fddf252ad1be2c89b69c2b068fc378daa952ba7f163c4a11628f55a4df523b3ef908390a45050565b6001600160a01b0382166120a85760405162461bcd60e51b815260206004820181905260248201527f4552433732313a206d696e7420746f20746865207a65726f206164647265737360448201526064016105ed565b6120b181611234565b156120fe5760405162461bcd60e51b815260206004820152601c60248201527f4552433732313a20746f6b656e20616c7265616479206d696e7465640000000060448201526064016105ed565b61210a60008383611a58565b6001600160a01b0382166000908152600360205260408120805460019290612133908490612b16565b909155505060008181526002602052604080822080546001600160a01b0319166001600160a01b03861690811790915590518392907fddf252ad1be2c89b69c2b068fc378daa952ba7f163c4a11628f55a4df523b3ef908290a45050565b6060816121b55750506040805180820190915260018152600360fc1b602082015290565b8160005b81156121df57806121c981612bf6565b91506121d89050600a83612b2e565b91506121b9565b60008167ffffffffffffffff81111561220857634e487b7160e01b600052604160045260246000fd5b6040519080825280601f01601f191660200182016040528015612232576020820181803683370190505b5090505b841561142c57612247600183612b61565b9150612254600a86612c11565b61225f906030612b16565b60f81b81838151811061228257634e487b7160e01b600052603260045260246000fd5b60200101906001600160f81b031916908160001a9053506122a4600a86612b2e565b9450612236565b600060016122b884610e5e565b6122c29190612b61565b600083815260076020526040902054909150808214612315576001600160a01b03841660009081526006602090815260408083208584528252808320548484528184208190558352600790915290208190555b5060009182526007602090815260408084208490556001600160a01b039094168352600681528383209183525290812055565b60085460009061235a90600190612b61565b6000838152600960205260408120546008805493945090928490811061239057634e487b7160e01b600052603260045260246000fd5b9060005260206000200154905080600883815481106123bf57634e487b7160e01b600052603260045260246000fd5b600091825260208083209091019290925582815260099091526040808220849055858252812055600880548061240557634e487b7160e01b600052603160045260246000fd5b6001900381819060005260206000200160009055905550505050565b600061242c83610e5e565b6001600160a01b039093166000908152600660209081526040808320868452825280832085905593825260079052919091209190915550565b82805461247190612bbb565b90600052602060002090601f01602090048101928261249357600085556124d9565b82601f106124ac57805160ff19168380011785556124d9565b828001600101855582156124d9579182015b828111156124d95782518255916020019190600101906124be565b506124e592915061251f565b5090565b5080546124f590612bbb565b6000825580601f10612505575050565b601f016020900490600052602060002090810190610b2d91905b5b808211156124e55760008155600101612520565b600067ffffffffffffffff8084111561254f5761254f612c51565b604051601f8501601f19908116603f0116810190828211818310171561257757612577612c51565b8160405280935085815286868601111561259057600080fd5b858560208301376000602087830101525050509392505050565b80356001600160a01b03811681146125c157600080fd5b919050565b600082601f8301126125d6578081fd5b611c4583833560208501612534565b6000602082840312156125f6578081fd5b611c45826125aa565b60008060408385031215612611578081fd5b61261a836125aa565b9150612628602084016125aa565b90509250929050565b600080600060608486031215612645578081fd5b61264e846125aa565b925061265c602085016125aa565b9150604084013590509250925092565b60008060008060808587031215612681578081fd5b61268a856125aa565b9350612698602086016125aa565b925060408501359150606085013567ffffffffffffffff8111156126ba578182fd5b8501601f810187136126ca578182fd5b6126d987823560208401612534565b91505092959194509250565b600080604083850312156126f7578182fd5b612700836125aa565b915060208301358015158114612714578182fd5b809150509250929050565b600080600060608486031215612733578283fd5b61273c846125aa565b9250602084013567ffffffffffffffff80821115612758578384fd5b612764878388016125c6565b93506040860135915080821115612779578283fd5b50612786868287016125c6565b9150509250925092565b600080604083850312156127a2578182fd5b6127ab836125aa565b946020939093013593505050565b6000602082840312156127ca578081fd5b5035919050565b600080604083850312156127e3578182fd5b82359150612628602084016125aa565b600060208284031215612804578081fd5b8135611c4581612c67565b600060208284031215612820578081fd5b8151611c4581612c67565b6000806040838503121561283d578182fd5b82359150602083013567ffffffffffffffff81111561285a578182fd5b612866858286016125c6565b9150509250929050565b600080600060608486031215612884578081fd5b8335925060208401359150604084013567ffffffffffffffff8111156128a8578182fd5b612786868287016125c6565b600081518084526128cc816020860160208601612b78565b601f01601f19169290920160200192915050565b600083516128f2818460208801612b78565b835190830190612906818360208801612b78565b01949350505050565b7f416363657373436f6e74726f6c3a206163636f756e7420000000000000000000815260008351612947816017850160208801612b78565b7001034b99036b4b9b9b4b733903937b6329607d1b6017918401918201528351612978816028840160208801612b78565b01602801949350505050565b6001600160a01b03858116825284166020820152604081018390526080606082018190526000906129b7908301846128b4565b9695505050505050565b60018060a01b03841681528260208201526060604082015260006129e860608301846128b4565b95945050505050565b602081526000611c4560208301846128b4565b60208082526032908201527f4552433732313a207472616e7366657220746f206e6f6e20455243373231526560408201527131b2b4bb32b91034b6b83632b6b2b73a32b960711b606082015260800190565b6020808252600990820152683737b71037bbb732b960b91b604082015260600190565b60208082526031908201527f4552433732313a207472616e736665722063616c6c6572206973206e6f74206f6040820152701ddb995c881b9bdc88185c1c1c9bdd9959607a1b606082015260800190565b86815260c060208201526000612ae360c08301886128b4565b8281036040840152612af581886128b4565b606084019690965250506080810192909252151560a0909101529392505050565b60008219821115612b2957612b29612c25565b500190565b600082612b3d57612b3d612c3b565b500490565b6000816000190483118215151615612b5c57612b5c612c25565b500290565b600082821015612b7357612b73612c25565b500390565b60005b83811015612b93578181015183820152602001612b7b565b83811115610fa05750506000910152565b600081612bb357612bb3612c25565b506000190190565b600181811c90821680612bcf57607f821691505b60208210811415612bf057634e487b7160e01b600052602260045260246000fd5b50919050565b6000600019821415612c0a57612c0a612c25565b5060010190565b600082612c2057612c20612c3b565b500690565b634e487b7160e01b600052601160045260246000fd5b634e487b7160e01b600052601260045260246000fd5b634e487b7160e01b600052604160045260246000fd5b6001600160e01b031981168114610b2d57600080fdfea2646970667358221220f0924b9c2032c545d6c72642dab8987e2369b79efb594645a9028a7e86b29ef464736f6c63430008040033",
  "linkReferences": {},
  "deployedLinkReferences": {}
}